{"contracts/Shipping.sol":{"Shipping":{"abi":[{"inputs":[],"stateMutability":"nonpayable","type":"constructor"},{"anonymous":false,"inputs":[{"indexed":false,"internalType":"string","name":"description","type":"string"}],"name":"LogNewAlert","type":"event"},{"inputs":[],"name":"Delivered","outputs":[],"stateMutability":"nonpayable","type":"function"},{"inputs":[],"name":"Shipped","outputs":[],"stateMutability":"nonpayable","type":"function"},{"inputs":[],"name":"Status","outputs":[{"internalType":"string","name":"","type":"string"}],"stateMutability":"view","type":"function"}],"evm":{"bytecode":{"linkReferences":{},"object":"608060405234801561001057600080fd5b5060008060006101000a81548160ff0219169083600281111561003657610035610040565b5b021790555061006f565b7f4e487b7100000000000000000000000000000000000000000000000000000000600052602160045260246000fd5b6104a18061007e6000396000f3fe608060405234801561001057600080fd5b50600436106100415760003560e01c806345f09ce914610046578063779822f7146100645780637e59301e1461006e575b600080fd5b61004e610078565b60405161005b9190610342565b60405180910390f35b61006c61009c565b005b6100766100fd565b005b606060008060009054906101000a900460ff1690506100968161015e565b91505090565b60026000806101000a81548160ff021916908360028111156100c1576100c0610364565b5b02179055507fca75c80642b93c980135b8355995abae3ab06033dc81f956b3824323b4903ef56040516100f3906103df565b60405180910390a1565b60016000806101000a81548160ff0219169083600281111561012257610121610364565b5b02179055507fca75c80642b93c980135b8355995abae3ab06033dc81f956b3824323b4903ef56040516101549061044b565b60405180910390a1565b606081600281111561017357610172610364565b5b6000600281111561018757610186610364565b5b036101c9576040518060400160405280600781526020017f50656e64696e670000000000000000000000000000000000000000000000000081525090506102ad565b8160028111156101dc576101db610364565b5b600160028111156101f0576101ef610364565b5b03610232576040518060400160405280600781526020017f536869707065640000000000000000000000000000000000000000000000000081525090506102ad565b81600281111561024557610244610364565b5b60028081111561025857610257610364565b5b0361029a576040518060400160405280600981526020017f44656c697665726564000000000000000000000000000000000000000000000081525090506102ad565b6040518060200160405280600081525090505b919050565b600081519050919050565b600082825260208201905092915050565b60005b838110156102ec5780820151818401526020810190506102d1565b60008484015250505050565b6000601f19601f8301169050919050565b6000610314826102b2565b61031e81856102bd565b935061032e8185602086016102ce565b610337816102f8565b840191505092915050565b6000602082019050818103600083015261035c8184610309565b905092915050565b7f4e487b7100000000000000000000000000000000000000000000000000000000600052602160045260246000fd5b7f596f7572207061636b6167652068617320617272697665640000000000000000600082015250565b60006103c96018836102bd565b91506103d482610393565b602082019050919050565b600060208201905081810360008301526103f8816103bc565b9050919050565b7f596f7572207061636b61676520686173206265656e2073686970706564000000600082015250565b6000610435601d836102bd565b9150610440826103ff565b602082019050919050565b6000602082019050818103600083015261046481610428565b905091905056fea2646970667358221220f57767788b67d221b034db3f13dcb5c35a0bbc066571e229f1427fc5c4e4c6b064736f6c63430008180033","opcodes":"PUSH1 0x80 PUSH1 0x40 MSTORE CALLVALUE DUP1 ISZERO PUSH2 0x10 JUMPI PUSH1 0x0 DUP1 REVERT JUMPDEST POP PUSH1 0x0 DUP1 PUSH1 0x0 PUSH2 0x100 EXP DUP2 SLOAD DUP2 PUSH1 0xFF MUL NOT AND SWAP1 DUP4 PUSH1 0x2 DUP2 GT ISZERO PUSH2 0x36 JUMPI PUSH2 0x35 PUSH2 0x40 JUMP JUMPDEST JUMPDEST MUL OR SWAP1 SSTORE POP PUSH2 0x6F JUMP JUMPDEST PUSH32 0x4E487B7100000000000000000000000000000000000000000000000000000000 PUSH1 0x0 MSTORE PUSH1 0x21 PUSH1 0x4 MSTORE PUSH1 0x24 PUSH1 0x0 REVERT JUMPDEST PUSH2 0x4A1 DUP1 PUSH2 0x7E PUSH1 0x0 CODECOPY PUSH1 0x0 RETURN INVALID PUSH1 0x80 PUSH1 0x40 MSTORE CALLVALUE DUP1 ISZERO PUSH2 0x10 JUMPI PUSH1 0x0 DUP1 REVERT JUMPDEST POP PUSH1 0x4 CALLDATASIZE LT PUSH2 0x41 JUMPI PUSH1 0x0 CALLDATALOAD PUSH1 0xE0 SHR DUP1 PUSH4 0x45F09CE9 EQ PUSH2 0x46 JUMPI DUP1 PUSH4 0x779822F7 EQ PUSH2 0x64 JUMPI DUP1 PUSH4 0x7E59301E EQ PUSH2 0x6E JUMPI JUMPDEST PUSH1 0x0 DUP1 REVERT JUMPDEST PUSH2 0x4E PUSH2 0x78 JUMP JUMPDEST PUSH1 0x40 MLOAD PUSH2 0x5B SWAP2 SWAP1 PUSH2 0x342 JUMP JUMPDEST PUSH1 0x40 MLOAD DUP1 SWAP2 SUB SWAP1 RETURN JUMPDEST PUSH2 0x6C PUSH2 0x9C JUMP JUMPDEST STOP JUMPDEST PUSH2 0x76 PUSH2 0xFD JUMP JUMPDEST STOP JUMPDEST PUSH1 0x60 PUSH1 0x0 DUP1 PUSH1 0x0 SWAP1 SLOAD SWAP1 PUSH2 0x100 EXP SWAP1 DIV PUSH1 0xFF AND SWAP1 POP PUSH2 0x96 DUP2 PUSH2 0x15E JUMP JUMPDEST SWAP2 POP POP SWAP1 JUMP JUMPDEST PUSH1 0x2 PUSH1 0x0 DUP1 PUSH2 0x100 EXP DUP2 SLOAD DUP2 PUSH1 0xFF MUL NOT AND SWAP1 DUP4 PUSH1 0x2 DUP2 GT ISZERO PUSH2 0xC1 JUMPI PUSH2 0xC0 PUSH2 0x364 JUMP JUMPDEST JUMPDEST MUL OR SWAP1 SSTORE POP PUSH32 0xCA75C80642B93C980135B8355995ABAE3AB06033DC81F956B3824323B4903EF5 PUSH1 0x40 MLOAD PUSH2 0xF3 SWAP1 PUSH2 0x3DF JUMP JUMPDEST PUSH1 0x40 MLOAD DUP1 SWAP2 SUB SWAP1 LOG1 JUMP JUMPDEST PUSH1 0x1 PUSH1 0x0 DUP1 PUSH2 0x100 EXP DUP2 SLOAD DUP2 PUSH1 0xFF MUL NOT AND SWAP1 DUP4 PUSH1 0x2 DUP2 GT ISZERO PUSH2 0x122 JUMPI PUSH2 0x121 PUSH2 0x364 JUMP JUMPDEST JUMPDEST MUL OR SWAP1 SSTORE POP PUSH32 0xCA75C80642B93C980135B8355995ABAE3AB06033DC81F956B3824323B4903EF5 PUSH1 0x40 MLOAD PUSH2 0x154 SWAP1 PUSH2 0x44B JUMP JUMPDEST PUSH1 0x40 MLOAD DUP1 SWAP2 SUB SWAP1 LOG1 JUMP JUMPDEST PUSH1 0x60 DUP2 PUSH1 0x2 DUP2 GT ISZERO PUSH2 0x173 JUMPI PUSH2 0x172 PUSH2 0x364 JUMP JUMPDEST JUMPDEST PUSH1 0x0 PUSH1 0x2 DUP2 GT ISZERO PUSH2 0x187 JUMPI PUSH2 0x186 PUSH2 0x364 JUMP JUMPDEST JUMPDEST SUB PUSH2 0x1C9 JUMPI PUSH1 0x40 MLOAD DUP1 PUSH1 0x40 ADD PUSH1 0x40 MSTORE DUP1 PUSH1 0x7 DUP2 MSTORE PUSH1 0x20 ADD PUSH32 0x50656E64696E6700000000000000000000000000000000000000000000000000 DUP2 MSTORE POP SWAP1 POP PUSH2 0x2AD JUMP JUMPDEST DUP2 PUSH1 0x2 DUP2 GT ISZERO PUSH2 0x1DC JUMPI PUSH2 0x1DB PUSH2 0x364 JUMP JUMPDEST JUMPDEST PUSH1 0x1 PUSH1 0x2 DUP2 GT ISZERO PUSH2 0x1F0 JUMPI PUSH2 0x1EF PUSH2 0x364 JUMP JUMPDEST JUMPDEST SUB PUSH2 0x232 JUMPI PUSH1 0x40 MLOAD DUP1 PUSH1 0x40 ADD PUSH1 0x40 MSTORE DUP1 PUSH1 0x7 DUP2 MSTORE PUSH1 0x20 ADD PUSH32 0x5368697070656400000000000000000000000000000000000000000000000000 DUP2 MSTORE POP SWAP1 POP PUSH2 0x2AD JUMP JUMPDEST DUP2 PUSH1 0x2 DUP2 GT ISZERO PUSH2 0x245 JUMPI PUSH2 0x244 PUSH2 0x364 JUMP JUMPDEST JUMPDEST PUSH1 0x2 DUP1 DUP2 GT ISZERO PUSH2 0x258 JUMPI PUSH2 0x257 PUSH2 0x364 JUMP JUMPDEST JUMPDEST SUB PUSH2 0x29A JUMPI PUSH1 0x40 MLOAD DUP1 PUSH1 0x40 ADD PUSH1 0x40 MSTORE DUP1 PUSH1 0x9 DUP2 MSTORE PUSH1 0x20 ADD PUSH32 0x44656C6976657265640000000000000000000000000000000000000000000000 DUP2 MSTORE POP SWAP1 POP PUSH2 0x2AD JUMP JUMPDEST PUSH1 0x40 MLOAD DUP1 PUSH1 0x20 ADD PUSH1 0x40 MSTORE DUP1 PUSH1 0x0 DUP2 MSTORE POP SWAP1 POP JUMPDEST SWAP2 SWAP1 POP JUMP JUMPDEST PUSH1 0x0 DUP2 MLOAD SWAP1 POP SWAP2 SWAP1 POP JUMP JUMPDEST PUSH1 0x0 DUP3 DUP3 MSTORE PUSH1 0x20 DUP3 ADD SWAP1 POP SWAP3 SWAP2 POP POP JUMP JUMPDEST PUSH1 0x0 JUMPDEST DUP4 DUP2 LT ISZERO PUSH2 0x2EC JUMPI DUP1 DUP3 ADD MLOAD DUP2 DUP5 ADD MSTORE PUSH1 0x20 DUP2 ADD SWAP1 POP PUSH2 0x2D1 JUMP JUMPDEST PUSH1 0x0 DUP5 DUP5 ADD MSTORE POP POP POP POP JUMP JUMPDEST PUSH1 0x0 PUSH1 0x1F NOT PUSH1 0x1F DUP4 ADD AND SWAP1 POP SWAP2 SWAP1 POP JUMP JUMPDEST PUSH1 0x0 PUSH2 0x314 DUP3 PUSH2 0x2B2 JUMP JUMPDEST PUSH2 0x31E DUP2 DUP6 PUSH2 0x2BD JUMP JUMPDEST SWAP4 POP PUSH2 0x32E DUP2 DUP6 PUSH1 0x20 DUP7 ADD PUSH2 0x2CE JUMP JUMPDEST PUSH2 0x337 DUP2 PUSH2 0x2F8 JUMP JUMPDEST DUP5 ADD SWAP2 POP POP SWAP3 SWAP2 POP POP JUMP JUMPDEST PUSH1 0x0 PUSH1 0x20 DUP3 ADD SWAP1 POP DUP2 DUP2 SUB PUSH1 0x0 DUP4 ADD MSTORE PUSH2 0x35C DUP2 DUP5 PUSH2 0x309 JUMP JUMPDEST SWAP1 POP SWAP3 SWAP2 POP POP JUMP JUMPDEST PUSH32 0x4E487B7100000000000000000000000000000000000000000000000000000000 PUSH1 0x0 MSTORE PUSH1 0x21 PUSH1 0x4 MSTORE PUSH1 0x24 PUSH1 0x0 REVERT JUMPDEST PUSH32 0x596F7572207061636B6167652068617320617272697665640000000000000000 PUSH1 0x0 DUP3 ADD MSTORE POP JUMP JUMPDEST PUSH1 0x0 PUSH2 0x3C9 PUSH1 0x18 DUP4 PUSH2 0x2BD JUMP JUMPDEST SWAP2 POP PUSH2 0x3D4 DUP3 PUSH2 0x393 JUMP JUMPDEST PUSH1 0x20 DUP3 ADD SWAP1 POP SWAP2 SWAP1 POP JUMP JUMPDEST PUSH1 0x0 PUSH1 0x20 DUP3 ADD SWAP1 POP DUP2 DUP2 SUB PUSH1 0x0 DUP4 ADD MSTORE PUSH2 0x3F8 DUP2 PUSH2 0x3BC JUMP JUMPDEST SWAP1 POP SWAP2 SWAP1 POP JUMP JUMPDEST PUSH32 0x596F7572207061636B61676520686173206265656E2073686970706564000000 PUSH1 0x0 DUP3 ADD MSTORE POP JUMP JUMPDEST PUSH1 0x0 PUSH2 0x435 PUSH1 0x1D DUP4 PUSH2 0x2BD JUMP JUMPDEST SWAP2 POP PUSH2 0x440 DUP3 PUSH2 0x3FF JUMP JUMPDEST PUSH1 0x20 DUP3 ADD SWAP1 POP SWAP2 SWAP1 POP JUMP JUMPDEST PUSH1 0x0 PUSH1 0x20 DUP3 ADD SWAP1 POP DUP2 DUP2 SUB PUSH1 0x0 DUP4 ADD MSTORE PUSH2 0x464 DUP2 PUSH2 0x428 JUMP JUMPDEST SWAP1 POP SWAP2 SWAP1 POP JUMP INVALID LOG2 PUSH5 0x6970667358 0x22 SLT KECCAK256 CREATE2 PUSH24 0x67788B67D221B034DB3F13DCB5C35A0BBC066571E229F142 PUSH32 0xC5C4E4C6B064736F6C6343000818003300000000000000000000000000000000 "},"methodIdentifiers":{"Delivered()":"779822f7","Shipped()":"7e59301e","Status()":"45f09ce9"}}}}}