{
  "_format": "hh-sol-artifact-1",
  "contractName": "Shipping",
  "sourceName": "contracts/Shipping.sol",
  "abi": [
    {
      "inputs": [],
      "stateMutability": "nonpayable",
      "type": "constructor"
    },
    {
      "anonymous": false,
      "inputs": [
        {
          "indexed": false,
          "internalType": "string",
          "name": "description",
          "type": "string"
        }
      ],
      "name": "LogNewAlert",
      "type": "event"
    },
    {
      "inputs": [],
      "name": "Delivered",
      "outputs": [],
      "stateMutability": "nonpayable",
      "type": "function"
    },
    {
      "inputs": [],
      "name": "Shipped",
      "outputs": [],
      "stateMutability": "nonpayable",
      "type": "function"
    },
    {
      "inputs": [],
      "name": "Status",
      "outputs": [
        {
          "internalType": "string",
          "name": "",
          "type": "string"
        }
      ],
      "stateMutability": "view",
      "type": "function"
    }
  ],
  "bytecode": "0x608060405234801561001057600080fd5b5060008060006101000a81548160ff0219169083600281111561003657610035610040565b5b021790555061006f565b7f4e487b7100000000000000000000000000000000000000000000000000000000600052602160045260246000fd5b6104a18061007e6000396000f3fe608060405234801561001057600080fd5b50600436106100415760003560e01c806345f09ce914610046578063779822f7146100645780637e59301e1461006e575b600080fd5b61004e610078565b60405161005b9190610342565b60405180910390f35b61006c61009c565b005b6100766100fd565b005b606060008060009054906101000a900460ff1690506100968161015e565b91505090565b60026000806101000a81548160ff021916908360028111156100c1576100c0610364565b5b02179055507fca75c80642b93c980135b8355995abae3ab06033dc81f956b3824323b4903ef56040516100f3906103df565b60405180910390a1565b60016000806101000a81548160ff0219169083600281111561012257610121610364565b5b02179055507fca75c80642b93c980135b8355995abae3ab06033dc81f956b3824323b4903ef56040516101549061044b565b60405180910390a1565b606081600281111561017357610172610364565b5b6000600281111561018757610186610364565b5b036101c9576040518060400160405280600781526020017f50656e64696e670000000000000000000000000000000000000000000000000081525090506102ad565b8160028111156101dc576101db610364565b5b600160028111156101f0576101ef610364565b5b03610232576040518060400160405280600781526020017f536869707065640000000000000000000000000000000000000000000000000081525090506102ad565b81600281111561024557610244610364565b5b60028081111561025857610257610364565b5b0361029a576040518060400160405280600981526020017f44656c697665726564000000000000000000000000000000000000000000000081525090506102ad565b6040518060200160405280600081525090505b919050565b600081519050919050565b600082825260208201905092915050565b60005b838110156102ec5780820151818401526020810190506102d1565b60008484015250505050565b6000601f19601f8301169050919050565b6000610314826102b2565b61031e81856102bd565b935061032e8185602086016102ce565b610337816102f8565b840191505092915050565b6000602082019050818103600083015261035c8184610309565b905092915050565b7f4e487b7100000000000000000000000000000000000000000000000000000000600052602160045260246000fd5b7f596f7572207061636b6167652068617320617272697665640000000000000000600082015250565b60006103c96018836102bd565b91506103d482610393565b602082019050919050565b600060208201905081810360008301526103f8816103bc565b9050919050565b7f596f7572207061636b61676520686173206265656e2073686970706564000000600082015250565b6000610435601d836102bd565b9150610440826103ff565b602082019050919050565b6000602082019050818103600083015261046481610428565b905091905056fea2646970667358221220f57767788b67d221b034db3f13dcb5c35a0bbc066571e229f1427fc5c4e4c6b064736f6c63430008180033",
  "linkReferences": {},
  "deployedLinkReferences": {}
}